:100000000C9462000C948A000C948A000C948A0070
:100010000C948A000C948A000C948A000C948A0038
:100020000C948A000C948A000C948A000C948A0028
:100030000C948A000C948A000C948A000C948A0018
:100040000C94BD030C948A000C9469010C942E014D
:100050000C948A000C948A000C948A000C948A00F8
:100060000C948A000C948A000000000024002700F1
:100070002A0000000000250028002B0000000000DE
:1000800023002600290004040404040404040202DA
:100090000202020203030303030301020408102007
:1000A0004080010204081020010204081020000012
:1000B0000007000201000003040600000000000029
:1000C0000000111511241FBECFEFD8E0DEBFCDBF59
:1000D00014E0A0E0B1E0E6EFF1E302C005900D927C
:1000E000A838B107D9F726E0A8E8B4E001C01D920E
:1000F000A031B207E1F710E0C2E6D0E004C02197DA
:10010000FE010E94F318C136D107C9F70E94860F7D
:100110000C947D180C940000FC0124853585F901B0
:10012000E05CFF4F80819181329620813181821B7A
:10013000930B8F739927089585E695E00C948C00B6
:10014000CF92DF92EF92FF920F931F93CF93DF93A3
:100150006C01EB017B01E40EF51E00E010E0CE1512
:10016000DF0561F06991D601ED91FC910190F0817C
:10017000E02DC6010995080F191FF1CFC801DF91C5
:10018000CF911F910F91FF90EF90DF90CF90089546
:100190000895833081F028F4813099F08230A1F005
:1001A00008958630A9F08730B9F08430D1F4809179
:1001B00080008F7D03C0809180008F7780938000C6
:1001C000089584B58F7702C084B58F7D84BD08956E
:1001D0008091B0008F7703C08091B0008F7D8093B5
:1001E000B00008953FB7F8948091B9049091BA0493
:1001F000A091BB04B091BC0426B5A89B05C02F3FBD
:1002000019F00196A11DB11D3FBFBA2FA92F982F3C
:100210008827820F911DA11DB11DBC01CD0142E0B7
:10022000660F771F881F991F4A95D1F708956115AA
:10023000710579F0FB0101900020E9F73197AF01DA
:10024000461B570BDC01ED91FC910280F381E02D00
:10025000099480E090E008950C9417011F920F928A
:100260000FB60F9211242F933F938F939F93EF9389
:10027000FF9320911D0530911E0580911F059091DF
:1002800020052817390731F48091C1008F7D8093B4
:10029000C10014C0E0911F05F0912005E352FB4F0F
:1002A000208180911F059091200501968F739927D9
:1002B0009093200580931F052093C600FF91EF9136
:1002C0009F918F913F912F910F900FBE0F901F9094
:1002D00018951F920F920FB60F9211242F934F93E0
:1002E0005F938F939F93EF93FF938091C00082FD64
:1002F0001CC02091C60080916105909162054091DB
:1003000063055091640501968F7399274817590723
:1003100071F0E0916105F0916205EF5DFA4F208385
:10032000909362058093610502C08091C600FF91A1
:10033000EF919F918F915F914F912F910F900FBEF1
:100340000F901F9018958F929F92AF92BF92CF926D
:10035000DF92EF92FF920F931F93CF93DF93CDB76E
:10036000DEB7A1970FB6F894DEBF0FBECDBF6C010C
:10037000142FE52FCB01022F19A2223008F40AE036
:100380007E0121E2E20EF11C802E912CA12CB12CD9
:10039000612F7E2FA50194010E949318029F1019CE
:1003A000112481E0E81AF1081A3014F4105D01C03C
:1003B000195CF7011083122FE32FCA01232B242B82
:1003C000252B31F7B701C6010E941701A1960FB680
:1003D000F894DEBF0FBECDBFDF91CF911F910F917B
:1003E000FF90EF90DF90CF90BF90AF909F908F9055
:1003F0000895DC01ED91FC910190F081E02D0994CC
:100400000F931F93CF93DF93EC016DE00E94F901EE
:100410008C016AE0CE010E94F901800F911FDF91EB
:10042000CF911F910F9108950F931F93CF93DF9357
:10043000EC010E9417018C01CE010E940002800F86
:10044000911FDF91CF911F910F9108958F929F92ED
:10045000AF92BF92CF92DF92EF92FF920F931F93D2
:10046000CF93DF937C018B016C0182E0C80ED11C1D
:100470004701E5E08E0E911CC0E0D0E0F60141910D
:100480006F0150E060E070E02AE0C8010E94A30123
:100490005C016EE2C8010E94F9018A0D9B1DC80F24
:1004A000D91FC814D90451F7F701458150E060E025
:1004B00070E02AE0C8010E94A3018C0F9D1FDF910C
:1004C000CF911F910F91FF90EF90DF90CF90BF9051
:1004D000AF909F908F900895FC0181EB91E0819304
:1004E000919384E0DF011D928A95E9F70895CF93F7
:1004F000DF93282F30E0F901E255FF4F8491F90195
:10050000E656FF4FD491F901EA57FF4FC491CC232F
:1005100091F081110E94C900EC2FF0E0EE0FFF1F57
:10052000E458FF4FA591B491EC91ED2381E090E068
:1005300021F480E002C080E090E0DF91CF91089547
:100540001F93CF93DF93282F30E0F901E255FF4F3F
:100550008491F901E656FF4FD491F901EA57FF4F14
:10056000C491CC23C1F0162F81110E94C900EC2F39
:10057000F0E0EE0FFF1FEE58FF4FA591B4919FB72B
:10058000F894111104C08C91D095D82302C0EC913D
:10059000DE2BDC939FBFDF91CF911F910895CF9306
:1005A000DF9390E0FC01E656FF4F2491FC01EA57EF
:1005B000FF4F8491882361F190E0880F991FFC011F
:1005C000E859FF4FC591D491FC01EE58FF4FA5911A
:1005D000B491611109C09FB7F89488812095822356
:1005E0008883EC912E230BC0623061F49FB7F8949E
:1005F0008881322F309583238883EC912E2B2C9386
:100600009FBF06C08FB7F894E8812E2B28838FBF39
:10061000DF91CF910895CF92DF92EF92FF92CF9327
:10062000DF936B017C010E94F200EB01C114D10445
:10063000E104F10479F00E94F2006C1B7D0B683E2E
:100640007340A0F381E0C81AD108E108F108C8514D
:10065000DC4FECCFDF91CF91FF90EF90DF90CF9008
:100660000895CF92DF92EF92FF9280E3E8E8F4E002
:10067000DF011D928A95E9F783EE8093880486E076
:1006800080938A048CEE80938B0481E3809394049E
:100690009EE4909395048093960484E3809397045A
:1006A0004BE750E060E071E087E895E00E94B70A10
:1006B00040E350E068E874E087E895E00E94EB06CC
:1006C00087E895E00E94280768EE73E080E090E0FC
:1006D0000E940B0387E895E00E945304892BF1F1F7
:1006E00040E350E068E874E087E895E00E94E605A2
:1006F000C090B004D090B104DC24CD24DC24E12CE3
:10070000F12C7601DD24CC248091B2049091B304C5
:10071000982789279827A0E0B0E0C82AD92AEA2A92
:10072000FB2AB0E8CB1ABEE7DB0ABAEAEB0AB3E869
:10073000FB0A65EC71E085E695E00E94140262E731
:1007400073E085E695E00E94140262EE71E085E6B2
:1007500095E00E941402B601C7010AC062E072E08F
:1007600085E695E00E94140260E070E080E090E091
:10077000FF90EF90DF90CF9008951F920F920FB6E9
:100780000F9211242F933F938F939F93AF93BF9317
:100790008091C9049091CA04A091CB04B091CC047B
:1007A0003091B80423E0230F2D3720F40196A11DCA
:1007B000B11D05C026E8230F0296A11DB11D20938F
:1007C000B8048093C9049093CA04A093CB04B09357
:1007D000CC048091B9049091BA04A091BB04B0916B
:1007E000BC040196A11DB11D8093B9049093BA0475
:1007F000A093BB04B093BC04BF91AF919F918F9124
:100800003F912F910F900FBE0F901F90189521E0F0
:10081000FC0184858F3F09F420E0822F0895CF9357
:10082000DF93EC01E881F9810480F581E02DCE01B0
:100830000995892B41F0E881F9810680F781E02D47
:10084000CE010995EFCFDF91CF910895CF93DF933C
:100850001F92CDB7DEB76983DC01ED91FC91028078
:10086000F381E02D41E050E0BE016F5F7F4F0995BD
:100870000F90DF91CF910895CF93DF93EC01E88142
:10088000F9810480F581E02DCE010995892B41F095
:10089000E881F9810680F781E02DCE010995EFCF3F
:1008A000DF91CF910895DC01ED91FC910480F581F9
:1008B000E02D0994CF93DF931F92CDB7DEB7698304
:1008C000DC01ED91FC910280F381E02D41E050E0EC
:1008D000BE016F5F7F4F09950F90DF91CF91089513
:1008E000DC01ED91FC91008CF18DE02D09940F93CA
:1008F0001F93CF93DF93FC01A685B7858D01005C24
:100900001F4FE8018881998101968F739927AD0166
:100910004E5B5F4FEA012881398128173907D1F3EF
:10092000E80128813981A20FB31F6C93A685B78592
:10093000A05CBF4F11969C938E93A689B7892C918A
:1009400081E090E0078C02C0880F991F0A94E2F7BB
:10095000822B8C9381E081A30488F589E02D80812E
:100960008064808381E090E0DF91CF911F910F91AF
:100970000895FC0181A1882329F0A489B5898C916F
:1009800086FFFBCF11A20895FC01A485B585FD016A
:10099000E05CFF4F20813181329680819181281760
:1009A000390779F080819181A80FB91F8C9120813E
:1009B00031812F5F3F4F2F7333273183208390E0A6
:1009C00008958FEF9FEF0895DC011C96ED91FC9147
:1009D0001D97DF01A05CBF4F2D913C91119712969E
:1009E0008D919C9111972817390739F08D919C9121
:1009F000E80FF91F808190E008958FEF9FEF089531
:100A00000F931F93CF93DF93CDB7DEB727970FB622
:100A1000F894DEBF0FBECDBF8F838E010F5F1F4FD7
:100A200086E0F80111928A95E9F77B836A835E83F9
:100A30004D830E940C0D0E94300E61E08AE30E94FB
:100A4000280D41E061E0CE0107960E94750D0E94DD
:100A50000C0DA80162E08AE30E94C30D0E942C0ED7
:100A600027960FB6F894DEBF0FBECDBFDF91CF91B2
:100A70001F910F910895CF93DF9300D000D000D045
:100A8000CDB7DEB719821A821B821C821E821D829C
:100A9000AE014B5F5F4FBE016F5F7F4FFC018485EE
:100AA0000E9400058D8190E0982F88272E81820F6B
:100AB000911D26960FB6F894DEBF0FBECDBFDF9115
:100AC000CF910895CF92DF92EF92FF920F931F93F1
:100AD000CF93DF9300D0CDB7DEB78A837B018A0145
:100AE0000E940C0D0E94300E61E085E40E94280DEA
:100AF00041E061E070E0CE0102960E94440D0E9448
:100B00000C0D19820E94A90B892B99F1CE01019637
:100B10000E94A50D8981853C61F50E94B40D882352
:100B200021F18FEF0E94120DD82E8FEF0E94120D2F
:100B30002D2DDD0C330B322F2227282B011511050B
:100B400019F0F801318320836701F8012081318198
:100B5000C6018E199F098217930738F48FEF0E9400
:100B6000120DF60181936F01F0CFCE0101960E9424
:100B7000A50D0E942C0E81E0F80120813181232BEC
:100B800009F480E00F900F90DF91CF911F910F91AA
:100B9000FF90EF90DF90CF900895CF93DF9300D038
:100BA000CDB7DEB75A834983AE014F5F5F4FFC017B
:100BB00084850E94620591E0892790E09195819556
:100BC00091090F900F90DF91CF910895EF92FF92CE
:100BD0000F931F93CF93DF9300D0CDB7DEB78C0177
:100BE0007B01DC01ED91FC910480F581E02D0995FC
:100BF000892B79F01A821982AE014F5F5F4FB701DE
:100C0000F80184850E946205882319F089819A8100
:100C100002C08FEF9FEF0F900F90DF91CF911F9148
:100C20000F91FF90EF900895FF920F931F93CF9332
:100C3000DF9300D01F92CDB7DEB78B838B01F42EEC
:100C40000E940C0D0E94300E62E08CE20E94280D82
:100C500040E061E0CE0103960E94750D82E00E94A3
:100C6000120D80E00E94120D8F2D0E94120D8EEE4B
:100C70000E94120D0E940C0D19821A82AE014E5F65
:100C80005F4FBE016F5F7F4F8CE20E94C20B0E94DC
:100C90002C0E8A81882329F08981F801808381E0E4
:100CA00001C080E00F900F900F90DF91CF911F91C6
:100CB0000F91FF9008950F931F93CF93DF931F928F
:100CC000CDB7DEB78C01DC01ED91FC910480F5819C
:100CD000E02D0995892B59F041E0BE016F5F7F4FF0
:100CE000F80184850E941406898190E002C08FEF8C
:100CF0009FEF0F90DF91CF911F910F9108950F9368
:100D00001F93CF93DF931F92CDB7DEB78C01DC0129
:100D1000ED91FC910480F581E02D0995892B59F026
:100D200040E0BE016F5F7F4FF80184850E9414068A
:100D3000898190E002C08FEF9FEF0F90DF91CF91FC
:100D40001F910F9108950F931F93CF93DF931F92DD
:100D5000CDB7DEB78C01DC01ED91FC910480F5810B
:100D6000E02D0995892B59F041E0BE016F5F7F4F5F
:100D7000F80184850E941406898190E002C08FEFFB
:100D80009FEF0F90DF91CF911F910F9108950F93D7
:100D90001F93CF93DF931F92CDB7DEB78C01DC0199
:100DA000ED91FC910480F581E02D0995892B59F096
:100DB00040E0BE016F5F7F4FF80184850E941406FA
:100DC000898190E002C08FEF9FEF0F90DF91CF916C
:100DD0001F910F910895EF92FF920F931F93CF935E
:100DE000DF9300D01F92CDB7DEB77B018A01FC01F3
:100DF00084858B830E940C0D0E94300E62E086E495
:100E00000E94280D40E061E070E0CE0103960E9450
:100E1000440D41E0B801C7010E94440D0E940C0D31
:100E20001A821982AE014F5F5F4FBE016E5F7F4F26
:100E300086E40E94C20B0E942C0EC8010F900F90F6
:100E40000F90DF91CF911F910F91FF90EF90089538
:100E5000CF93DF9300D01F92CDB7DEB7FC0184851E
:100E60008B830E940C0D0E94300E61E089E30E948A
:100E7000280D41E061E0CE0103960E94750D0E94AD
:100E80000C0D1A821982AE014F5F5F4FBE016E5F7B
:100E90007F4F89E30E94C20B0E942C0E8981882318
:100EA00021F081E09A81913009F080E090E00F908C
:100EB0000F900F90DF91CF910895CF93DF9300D0E3
:100EC00000D0CDB7DEB78C830E940C0D0E94300E8F
:100ED00061E08BE20E94280D41E061E0CE010496C2
:100EE0000E94750D0E940C0D1B821A821982AE01A0
:100EF0004D5F5F4FBE016F5F7F4F8BE20E940D0C15
:100F00000E942C0E89819A810F900F900F900F9064
:100F1000DF91CF910895FC0184858F3F11F00C94EF
:100F20005D0780E090E00895FC0184858F3F11F01B
:100F30000C945D0780E090E00895CF93DF9300D09C
:100F40001F92CDB7DEB78B830E940C0D0E94300E2E
:100F500061E08FE20E94280D41E061E0CE0103963E
:100F60000E94750D0E940C0D19821A82AE014E5F0F
:100F70005F4FBE016F5F7F4F8FE20E940D0C0E949A
:100F80002C0E89810F900F900F90DF91CF910895D3
:100F9000FC0184858F3F71F00E949D07843038F0FA
:100FA0009BEF980F933018F091E08A3009F490E0AD
:100FB000892F089580E00895CF93DF9300D01F928A
:100FC000CDB7DEB78B830E940C0D0E94300E61E01E
:100FD0008EE20E94280D41E061E0CE0103960E945E
:100FE000750D0E940C0D19821A82AE014E5F5F4F83
:100FF000BE016F5F7F4F8EE20E940D0C0E942C0E8F
:101000000F900F900F90DF91CF910895CF93DF93C2
:10101000FC0184858F3F29F0EF010E94DC078FEFF0
:101020008C87DF91CF910895FF920F931F93CF93F9
:10103000DF93CDB7DEB728970FB6F894DEBF0FBEAB
:10104000CDBF6B837C838D839E83142FF52E2F83DE
:1010500008870E940C0D0E94300E64E08DE20E9411
:10106000280D40E064E0CE0103960E94750D82E0F9
:101070000E94120D8F2D0E94120D812F0E94120DC1
:1010800040E061E0CE0107960E94750D41E061E00D
:10109000CE0108960E94750D0E940C0D19821A82CD
:1010A000AE014E5F5F4FBE016F5F7F4F8DE20E94CA
:1010B0000D0C0E942C0E28960FB6F894DEBF0FBEC2
:1010C000CDBFDF91CF911F910F91FF9008950F93A6
:1010D000CF93DF93FC0194859F3F69F4A5EDB4E0C5
:1010E00080E02D913D91232B21F08F5F8430C9F753
:1010F00001C0982F948724852F3FB9F0DB01EF01C1
:1011000012966D917D918D919C91159701E00E94B1
:1011100014088C8590E0FC01EE0FFF1FE35DFE4F8D
:101120009183808381E090E002C080E090E0DF91D5
:10113000CF910F910895CF92DF92EF92FF920F938C
:101140001F93CF93DF9300D000D0CDB7DEB7E5ED8E
:10115000F4E000E010E021913191232B39F00F5F92
:101160001F4F04301105B9F780E03DC06B017C01D1
:101170000C8381E089830E940C0D0E94300E63E095
:1011800088E20E94280D82E00E94120D8D2D0E949F
:10119000120D8C2D0E94120D40E061E0CE010496EC
:1011A0000E94750D41E061E0CE0101960E94750D2F
:1011B0000E940C0D1B821A82AE014E5F5F4FBE0172
:1011C0006D5F7F4F88E20E940D0C0E942C0EF8018B
:1011D000EE0FFF1FEB52FB4FC082D182F701048755
:1011E000C586D68681E00F900F900F900F90DF910B
:1011F000CF911F910F91FF90EF90DF90CF900895C6
:101200000F931F93CF93DF93EC018C858F3F09F1F0
:101210000E94DC07EC85F0E0EE0FFF1FE35DFE4F60
:101220008FEF9FEF9183808302E310E08C858F3FE7
:1012300071F00E949D07882351F00150110939F087
:1012400064E670E080E090E00E940B03EFCF8FEF48
:101250008C87DF91CF911F910F910895CF92DF92EC
:10126000EF92FF920F931F93CF93DF9300D000D0A4
:10127000CDB7DEB76C018B017A01FC018485843027
:1012800040F081E090E0F6019383828380E090E07B
:1012900069C0452BB1F38C830E940C0D0E94300E67
:1012A00062E084E40E94280D40E061E070E0CE013D
:1012B00004960E94440D41E0B701C8010E94440D0C
:1012C0000E940C0D1A821982AE014F5F5F4FBE0162
:1012D0006E5F7F4F84E40E94C20B0E942C0E8981B6
:1012E000882379F28A81813061F6F60184858B83C7
:1012F0001A82198200E010E00E940C0D0E94300E4C
:1013000061E08AE20E94280D41E061E0CE0103968F
:101310000E94750D0E940C0DAE014F5F5F4FBE0124
:101320006E5F7F4F8AE20E940D0C0E942C0E8A8114
:10133000811109C00F5F1F4F64E670E080E090E00C
:101340000E940B0302C000E010E08A81882331F084
:101350000931110509F495CFC70104C00931110500
:1013600058F2F6CF0F900F900F900F90DF91CF9122
:101370001F910F91FF90EF90DF90CF900895CF9243
:10138000DF92EF92FF920F93CF93DF93EC01EDE2A8
:10139000F1E020E030E081919191019631F02F5FF2
:1013A0003F4F24303105B9F72FEF2C872F3FD1F174
:1013B000FB01628173818481958100E00E941408A1
:1013C0008C8590E0FC01EE0FFF1FE35DFE4F9183E3
:1013D00080838FB7F894C090C904D090CA04E0907D
:1013E000CB04F090CC048FBFE881F9810488F589A3
:1013F000E02DCE01099581111EC02FB7F894809180
:10140000C9049091CA04A091CB04B091CC042FBF21
:101410008C199D09AE09BF0980319742A105B1051C
:10142000C0F009C063E774E085E695E00E9414020D
:1014300080E090E015C0E881F9810488F589E02D0D
:10144000CE01099521E090E0811101C020E0822FBA
:1014500007C061E070E080E090E00E940B03C4CF21
:10146000DF91CF910F91FF90EF90DF90CF90089593
:101470000F931F93CF93DF9300D000D000D0CDB750
:10148000DEB78C01FB0119821A821B821C821E822C
:101490001D82AE014B5F5F4FBE016F5F7F4F848542
:1014A0000E94000581EB91E0F8019183808389819E
:1014B0009A81AB81BC8182839383A483B583C80165
:1014C00026960FB6F894DEBF0FBECDBFDF91CF9149
:1014D0001F910F910895CF92DF92EF92FF920F9399
:1014E0001F93CF93DF93CDB7DEB72C970FB6F89449
:1014F000DEBF0FBECDBF8C016B017A01CE01079616
:101500000E946C02C6010E94520F811103C080E04C
:1015100090E01EC0CE0107960E94340E892BB9F3CD
:10152000D801ED91FC910484F585E02D81EB91E0EB
:101530009A83898389859A85AB85BC858B839C83B7
:10154000AD83BE83A701BE016F5F7F4FC8010995C0
:101550002C960FB6F894DEBF0FBECDBFDF91CF91B2
:101560001F910F91FF90EF90DF90CF900895CF9251
:10157000DF92EF92FF920F931F93CF93DF93CDB73C
:10158000DEB72C970FB6F894DEBF0FBECDBF8C012F
:101590006B017A01CE0107960E946C02C6010E947F
:1015A000520F811103C080E090E01EC0CE0107966B
:1015B0000E94340E892BB9F3D801ED91FC9100887B
:1015C000F189E02D81EB91E09A83898389859A8561
:1015D000AB85BC858B839C83AD83BE83A701BE0195
:1015E0006F5F7F4FC80109952C960FB6F894DEBF48
:1015F0000FBECDBFDF91CF911F910F91FF90EF9064
:10160000DF90CF90089540E0682F89EC95E00C942E
:10161000A70CCF93DF93823028F09091D805986083
:101620009093D8058093DC051092DD058AE39DE058
:101630000197F1F760E08091CD050E94A00260E083
:101640008091CF050E94A0028091CE058F3F19F0B6
:1016500060E00E94A0028091D80584FD20C063E074
:1016600089EC95E00E94700CCAE4D6E4CE010197A3
:10167000F1F763E089EC95E00E94700C2197F1F797
:1016800063E089EC95E00E94700C82E592E001979E
:10169000F1F762E089EC95E00E94700C15C0806261
:1016A0000E94030B8AE496E40197F1F78091D80534
:1016B00080620E94030B82E592E00197F1F780912E
:1016C000D80580620E94030B8091D80580620E9439
:1016D000030B84E08093D9058CE00E94030B81E02A
:1016E0000E94030B8AE39FE10197F1F782E0809368
:1016F000DA0586E0DF91CF910C94030BCF93DF9353
:10170000CDB7DEB728970FB6F894DEBF0FBECDBFBA
:1017100098E0EDE4F1E0DE01119601900D929A95CA
:10172000E1F79091DC05891710F08FEF890FFE012A
:101730003196E80FF11DE80FF11D80818068289631
:101740000FB6F894DEBF0FBECDBFDF91CF910C94E2
:10175000030BCF93DF93C9EED3E00E94B40D8F3E0D
:1017600029F0219731F0803EC1F703C08FEF9FEF42
:1017700006C021E090E0803E09F020E0822FDF915A
:10178000CF910895CF92DF92EF92FF920F931F9324
:10179000CF93DF931F92CDB7DEB7182F6B017A017D
:1017A00019820E94A90B892B19F480E090E02BC0CC
:1017B000CE0101960E94A50D106889811813F5CFFE
:1017C0000E94B40D8823C9F08FEF0E94120DE1141E
:1017D000F10411F0F70180838601F701808190E028
:1017E00098012C193D09281739073CF48FEF0E9406
:1017F000120DF80181938F01F0CFCE0101960E9466
:10180000A50D81E090E00F90DF91CF911F910F9196
:10181000FF90EF90DF90CF900895CF92DF92EF92FC
:10182000FF920F931F93CF93DF931F92CDB7DEB735
:10183000182F6B017A0119820E94A90B892B19F4C8
:1018400080E090E02DC0CE0101960E94A50D1068A9
:1018500089811813F5CFCE0101960E94A50D8981CB
:10186000813071F78FEF0E94120DE114F10411F035
:10187000F701808300E010E0F701808190E0081715
:10188000190744F4C601800F911F0E94A50D0F5F38
:101890001F4FF2CFCE0101960E94A50D81E090E08E
:1018A0000F90DF91CF911F910F91FF90EF90DF90FC
:1018B000CF900895CF93DF93EC0160E08E810E947A
:1018C000A00261E08E810E94A00260E08E810E94F1
:1018D000A0028AE891E00197F1F7DF91CF91089596
:1018E000AF92BF92CF92DF92EF92FF920F931F932E
:1018F000CF93DF935C017C0187E0E80EF11CC0E030
:10190000D0E0062F10E0670161E0F70181917F01CF
:101910000E94CF02B8010C2E02C0759567950A94FB
:10192000E2F76170F60180810E94A0022196C43026
:10193000D10549F7C501DF91CF911F910F91FF901C
:10194000EF90DF90CF90BF90AF900C945A0CAF9275
:10195000BF92CF92DF92EF92FF920F931F93CF939C
:10196000DF93EC01F62E642F8C810E94A0028D8102
:101970008F3F19F060E00E94A0028F850F2D10E0CC
:1019800084FF2DC05E0187E0A80EB11CE12CF12C74
:10199000650161E0F50181915F010E94CF02B8010C
:1019A0000E2C02C0759567950A94E2F76170F601F6
:1019B00080810E94A002FFEFEF1AFF0A88E0E8167C
:1019C000F10431F7CE01DF91CF911F910F91FF907C
:1019D000EF90DF90CF90BF90AF900C945A0CB8016D
:1019E00084E0759567958A95E1F7CE010E94700CA9
:1019F0006F2DCE01DF91CF911F910F91FF90EF904E
:101A0000DF90CF90BF90AF900C94700C41E00E949B
:101A1000A70C81E090E0089587E00E947702892B6F
:101A2000D9F70895CF93DF931F92CDB7DEB789839F
:101A300089818EBD0DB407FEFDCF8EB52AE030E062
:101A4000000021503109E1F70F90DF91CF91089507
:101A5000CF93DF93D82FC62F80EE0E94120D82E223
:101A600090E00197F1F78D2F8F770E94120D8C2F48
:101A70000E94120DC11105C08EEEDF91CF910C9422
:101A8000120DDF91CF910895DF92EF92FF920F93A5
:101A90001F93CF93DF93D82EE92E8B01F42E812F45
:101AA0000E94120D802F0E94120DCD2DDE2D0C0FE5
:101AB0001D1FC017D10721F089910E94120DF9CF87
:101AC00081E0F8120AC08EEEDF91CF911F910F9145
:101AD000FF90EF90DF900C94120DDF91CF911F914A
:101AE0000F91FF90EF90DF900895DF92EF92FF92B9
:101AF0000F931F93CF93DF937C01C62FD42E862F95
:101B00000E94120D8701D0E0C8018E199F098C1721
:101B10009D0734F4F80181918F010E94120DF4CFDA
:101B2000F1E0DF120AC08EEEDF91CF911F910F918D
:101B3000FF90EF90DF900C94120DDF91CF911F91E9
:101B40000F91FF90EF90DF900895CF93DF93EC011A
:101B50008FEF0E94120D88838AE090E000000197C9
:101B6000E9F7DF91CF910895CF93DF931F92CDB71F
:101B7000DEB71982CE0101960E94A50D89810F90D2
:101B8000DF91CF9108956F927F928F929F92AF9243
:101B9000BF92CF92DF92EF92FF920F931F93CF935A
:101BA000DF931F92CDB7DEB7182F662E7A01198208
:101BB0000E94A90B892B19F480E090E03DC0CE0172
:101BC00001960E94A50D106889811813F5CF0E9417
:101BD000B40D782E882381F38701C12CD12C882E57
:101BE000912CC814D90404F58FEF0E94120DF8014E
:101BF0008083E12CF12CF801808190E0E816F90651
:101C00006CF4A180B280AE0CBF1C8FEF0E94120D4D
:101C1000F5018083FFEFEF1AFF0AEDCF8FEFC81AAF
:101C2000D80A0D5F1F4FDDCF7610C6CFCE010196CB
:101C30000E94A50D81E090E00F90DF91CF911F9160
:101C40000F91FF90EF90DF90CF90BF90AF909F905B
:101C50008F907F906F90089561E08AE00C94A002CD
:101C600060E08AE00C94A0028F929F92AF92BF92A4
:101C7000CF92DF92EF92FF920F931F93CF93DF9358
:101C8000CDB7DEB72B970FB6F894DEBF0FBECDBF32
:101C90006C011AE00FEF0B830C830D830E830E94FF
:101CA0000C0D0E94300E60E085E30E94280D0E941A
:101CB0000C0D1B86AE01455F5F4FBE01695F7F4F14
:101CC00085E30E940D0C892BC1F04F8158856985F1
:101CD0007A85F601428353836483758391E080E0C3
:101CE0008B809C80AD80BE80481559056A057B05B8
:101CF00009F490E0E92EF82E02C0E12CF12C0E94AC
:101D00002C0EEF2851F4115039F068EE73E080E0AA
:101D100090E00E940B03BFCF10E081E090E0111132
:101D200002C080E090E02B960FB6F894DEBF0FBEA5
:101D3000CDBFDF91CF911F910F91FF90EF90DF907A
:101D4000CF90BF90AF909F908F900895CF92DF92E9
:101D5000EF92FF920F931F93CF93DF93CDB7DEB730
:101D600068970FB6F894DEBF0FBECDBF8B01F901A7
:101D7000C280D380E480F580FA014281538164817E
:101D80007581FC0182819381A481B58189879A87BD
:101D9000AB87BC874D835E836F837887C982DA8285
:101DA000EB82FC8283E08D8B0E940C0D0E94300E32
:101DB00064E084E10E94280D40E061E0CE01459698
:101DC0000E94750D40E064E0CE0109960E94750DF9
:101DD00040E064E0CE0105960E94750D41E064E0AC
:101DE000CE0101960E94750D0E940C0D198A1D8668
:101DF000AE01435F5F4FBE016F5E7F4F84E10E9483
:101E00000D0C892B11F48FEF898B0E942C0EF80199
:101E100082819381A481B581898B9A8BAB8BBC8B9A
:101E20001D861E861F86188A81E08E8B0E940C0DEF
:101E30000E94300E63E085E10E94280D40E061E0E1
:101E4000CE0146960E94750D40E064E0CE014196B9
:101E50000E94750D41E064E0CE010D960E94750D63
:101E60000E940C0D188E1F8AAE01495E5F4FBE01A5
:101E7000685E7F4F85E10E940D0C892B11F48FEF76
:101E8000888F0E942C0E68960FB6F894DEBF0FBEA6
:101E9000CDBFDF91CF911F910F91FF90EF90DF9019
:101EA000CF9008950F931F93CF93DF9300D0CDB7BA
:101EB000DEB78C010E940C0D0E94300E61E084E3BD
:101EC0000E94280DF80101900020E9F73197BF0129
:101ED000601B710B41E0C8010E94750D0E940C0D42
:101EE00019821A82AE014E5F5F4FBE016F5F7F4F56
:101EF00084E30E940D0C182F0E942C0E812F0F904E
:101F00000F90DF91CF911F910F910895CF93DF93A1
:101F1000CDB7DEB7C855D1090FB6F894DEBF0FBEF6
:101F2000CDBF789484B5826084BD84B5816084BD62
:101F300085B5826085BD85B5816085BD80916E0067
:101F4000816080936E001092810080918100826098
:101F500080938100809181008160809381008091D5
:101F600080008160809380008091B10084608093C4
:101F7000B1008091B00081608093B00080917A00C0
:101F8000846080937A0080917A00826080937A00E6
:101F900080917A00816080937A0080917A008068D5
:101FA00080937A001092C100E0917905F0917A0552
:101FB00081E090E09C010090850502C0220F331F54
:101FC0000A94E2F72083E0917505F091760510827E
:101FD000E0917705F091780520E120831092860545
:101FE000E0917B05F0917C0540819C01009081058A
:101FF00002C0220F331F0A94E2F7242B2083E091C2
:102000007B05F0917C0540819C010090820502C017
:10201000220F331F0A94E2F7242B2083E0917B05E3
:10202000F0917C0540819C010090830502C0220F45
:10203000331F0A94E2F7242B2083E0917B05F09173
:102040007C0520810090840502C0880F991F0A94A6
:10205000E2F780958223808361E089E00E94CF02CD
:1020600060E086E00E94CF0282E00E94090B6BE1F3
:1020700072E085E695E00E94140262E773E085E66F
:1020800095E00E94140281EB91E09A83898340914C
:10209000A4055091A5056091A6057091A7054B83F5
:1020A0005C836D837E839AA789A74091AA0550918E
:1020B000AB056091AC057091AD054BA75CA76DA712
:1020C0007EA79EAB8DAB4091B0055091B10560915C
:1020D000B2057091B3054FAB58AF69AF7AAF239695
:1020E0009FAF8EAF23978091B6059091B705A091D1
:1020F000B805B091B90527968CAF9DAFAEAFBFAF15
:1021000027979E012F5F3F4FAE01475D5F4FBE0196
:102110006B5C7F4FCE018F5B9F4F0E94A60E61E4E8
:1021200072E085E695E00E941402EDE1F1E0019095
:102130000020E9F731978F010D511140E8E2F1E0FD
:1021400001900020E9F73197CF01885291407C013E
:102150000E940C0D0E94300E62E081E10E94280D69
:1021600040E06E2D88E291E00E94750D41E0602F05
:102170008DE191E00E94750D0E940C0D19A6198247
:10218000AE014F5F5F4FBE01675D7F4F81E10E94EF
:102190000D0C892B11F48FEF89A70E942C0E89A5B5
:1021A0008F3F69F468E572E085E695E00E941402CD
:1021B00062E773E085E695E00E94140229C01AE008
:1021C0000FEF68E873E180E090E00E940B030E944B
:1021D0000C0D0E94300E60E080E20E94280D0E94EB
:1021E0000C0D09A71982AE014F5F5F4FBE01675DFD
:1021F0007F4F80E20E940D0C0E942C0E89A5982F23
:102200009D7F19F0833071F604C01150D1F6CACF0A
:10221000FFCF6AE772E085E695E00E941402CE01E6
:1022200001960E946C020E943918809105069091D7
:102230000606A0910706B09108068B839C83AD83A8
:10224000BE8380939E0590939F05A093A005B093B5
:10225000A105CE0101960E946C020E94391880915E
:10226000FD059091FE05A091FF05B09100068B83BE
:102270009C83AD83BE838093980590939905A0932A
:102280009A05B0939B0565E972E085E695E00E94AA
:102290002C018CE995E00E94291865EA72E085E638
:1022A00095E00E942C0186E995E00E9429186AEBCE
:1022B00072E085E695E00E942C012AE048EB52E2AC
:1022C00060E070E085E695E00E94A30185E695E078
:1022D0000E94000262E773E085E695E00E94140226
:1022E00068EB72E287E895E00E949B0865ED72E07A
:1022F00085E695E00E94140281E393E09093C00488
:102300008093BF048091C5049091C604A091C70436
:10231000B091C8048093C1049093C204A093C304F5
:10232000B093C4040E9458130E9458138091BD04B6
:102330009091BE04029719F462EF72E002C062E26B
:1023400073E085E695E00E9414026FE073E085E695
:1023500095E00E942C010E9458138091BD04909139
:10236000BE040E94B8178CE0E5E3F1E0DE01A35B58
:10237000BF4F01900D928A95E1F78CE0E1E4F1E026
:10238000DE01AF5BBF4F01900D928A95E1F78CE0C3
:10239000FE01E35BFF4FDE01D59601900D928A9519
:1023A000E1F78CE0FE01EF5BFF4FDE0199960190B3
:1023B0000D928A95E1F78CE0FE01F596DE0111960B
:1023C00001900D928A95E1F78CE0FE01B996DE014D
:1023D0001D9601900D928A95E1F70E9458136B01AA
:1023E0007C010E940E1400910F0610E00E54184F4D
:1023F000698D7A8D8B8D9C8D0E940E1480910F06B5
:1024000090E08E54984F8017910769F0C701B6018C
:102410000E940E1460910F0670E06E54784FCE014A
:1024200001960E94C617C701B6010E940E140091C2
:102430000F0610E00E54184F698D7A8D8B8D9C8D90
:102440000E940E1480910F0690E08E54984F8017D2
:10245000910769F0C701B6010E940E1460910F0642
:1024600070E06E54784FCE0101960E94C6170D8D14
:102470001E8D2F8D38A1498D5A8D6B8D7C8D401707
:1024800051076207730760F4C416D506E606F7061F
:1024900090F081E0C016D106E206F30668F00BC0AA
:1024A00081E0C016D106E206F30630F0C416D50668
:1024B000E606F70608F480E0882319F0AB85BC85B2
:1024C00002C0AF89B88D2CE330E00E94D818C60E48
:1024D000D71EE81EF91E69E473E085E695E00E94C8
:1024E0002C01C701B6010E940E1480910D0690E0E8
:1024F0000E94841763E773E085E695E00E942C0153
:10250000C701B6010E940E1480910E0690E00E9451
:10251000841763E773E085E695E00E942C01C7010C
:10252000B6010E940E1480910F0690E08E54984FD1
:102530000E94841761E773E085E695E00E942C0114
:10254000C701B6010E940E1480910B0690E00E9414
:10255000841765E773E085E695E00E942C01C701CA
:10256000B6010E940E1480910A0690E00E94841722
:1025700065E773E085E695E00E942C01C701B6018E
:102580000E940E148091090690E00E94B81762E73D
:1025900073E085E695E00E94140267E773E085E644
:1025A00095E00E94140262E773E085E695E00E94E0
:1025B000140263E973E085E695E00E94140240E5A9
:1025C00050E06EE071E08AEB95E00E946B0A892B87
:1025D000E1F065EB73E085E695E00E94140269EC9A
:1025E00073E08AEB95E00E94140268EE73E08AEBD8
:1025F00095E00E9414026DEF73E08AEB95E00E9473
:1026000014028AEB95E00E94000286E00E947702A5
:10261000182F682F89E00E94A002113081F56FE029
:1026200074E085E695E00E94140261E089E00E9472
:10263000A0028091D905982F94609093D9058C6061
:102640000E94030B64EF71E080E090E00E940B03B6
:1026500080E00E947E0B60E374E089EC95E00E94CC
:102660002C0181E00E947E0B6EE374E089EC95E022
:102670000E942C0160E375E780E090E014C0111126
:1026800014C06FE474E085E695E00E941402809126
:10269000D9058B7F8093D90588600E94030B64EF76
:1026A00071E080E090E00E940B030E949C00ADCF9F
:1026B0000F931F938FB7F8940091C9041091CA0427
:1026C0002091CB043091CC048FBF4091D104509124
:1026D000D2046091D3047091D404041B150B260B13
:1026E000370B8091C5049091C604A091C704B091A6
:1026F000C804083E134021053105C0F00196A11D14
:10270000B11D8093C5049093C604A093C704B093F1
:10271000C80448515C4F6F4F7F4F4093D104509392
:10272000D2046093D3047093D404C4CF4091C10405
:102730005091C2046091C3047091C404841795073A
:10274000A607B70708F45FC0E091BF04F091C0048A
:10275000309709F458C009956115710581059105F7
:1027600081F16093C5047093C6048093C70490936D
:10277000C804DC01CB01845D9E4FAF4FBF4F8093F7
:10278000C1049093C204A093C304B093C40482E034
:1027900090E09093BE048093BD042FB7F89480918D
:1027A000C9049091CA04A091CB04B091CC042FBF6E
:1027B0008093D1049093D204A093D304B093D40413
:1027C00022C08091C5049091C604A091C704B09125
:1027D000C804845D9E4FAF4FBF4F8093C104909358
:1027E000C204A093C304B093C40481E090E020919C
:1027F000BD043091BE04232B11F480E090E090934F
:10280000BE048093BD046091C5047091C60480919C
:10281000C7049091C8041F910F9108954F925F9241
:102820006F927F928F929F92AF92BF92CF92DF92E0
:10283000EF92FF920F931F93CF93DF934B015C01B5
:102840008091CD049091CE04A091CF04B091D0049A
:1028500088159905AA05BB0509F4D2C08CE3C82EDA
:10286000D12CE12CF12CC501B401A70196010E94E5
:10287000931860930906CA01B901A70196010E9445
:10288000931860930A06C501B40120E13EE040E0E0
:1028900050E00E949318CA01B90128E130E040E0FD
:1028A00050E00E94931860930B06C501B40120E824
:1028B00031E541E050E00E94931869017A01CA01B4
:1028C000B9016C5F7F4F8F4F9F4F27E030E040E0B2
:1028D00050E00E9493186F5F60930C06412C512CBE
:1028E000320140E004E610E0C0E9D1E0242F30E0FE
:1028F0002E54384FF901E370FF27309789F4C9014E
:10290000B8010E94C418892B31F4C901BE010E948C
:10291000C418892B29F48EE691E0A0E0B0E004C051
:102920008DE691E0A0E0B0E0480E591E6A1E7B1EC5
:10293000D301C201AA27BB27C816D906EA06FB069F
:1029400010F04F5FD3CF40930F06309799F4C90131
:1029500064E670E00E94C418892B39F4C90160E96B
:1029600071E00E94C418892B29F48EE691E0A0E062
:10297000B0E004C08DE691E0A0E0B0E0481A590A4A
:102980006A0A7B0AC418D508E608F708C90164E694
:1029900070E00E94C418EC01C90160E971E00E9476
:1029A000C418A9EBB1E020E0213039F4309749F4A4
:1029B000209729F4009729F402C04C9103C04DE1FF
:1029C00001C04CE150E060E070E0C416D506E606B8
:1029D000F70640F0C41AD50AE60AF70A2F5F1196E7
:1029E0002C3011F72F5F20930E06C394C0920D0672
:1029F0008092CD049092CE04A092CF04B092D004E5
:102A0000DF91CF911F910F91FF90EF90DF90CF90CA
:102A1000BF90AF909F908F907F906F905F904F90FE
:102A20000895CF92DF92EF92FF92CF93DF93C1EBA5
:102A3000D1E0D093DF05C093DE051092E00510923F
:102A4000E1051092E2051092E305D093E505C093ED
:102A5000E4051092E6051092E7051092E805109241
:102A6000E905D093EB05C093EA051092EC051092AE
:102A7000ED051092EE051092EF05D093F105C0938D
:102A8000F0051092F2051092F3051092F4051092E1
:102A9000F50561E08DE00E94CF0261E08BE00E94CD
:102AA000CF0261E08AE00E94CF0261E08AE00E94EA
:102AB000CF0260E087E00E94CF0261E089E00E94DF
:102AC000CF0260E08DE00E94A00260E08BE00E94F7
:102AD000A00261E08AE00E94A00261E08AE00E9418
:102AE000A00260E089E00E94A0028CB580618CBDEC
:102AF0008CB580648CBD109268051092670588EED5
:102B000093E0A0E0B0E08093690590936A05A093FC
:102B10006B05B0936C0589E591E090936605809311
:102B2000650581E295E090937205809371058DEDC6
:102B300094E0909374058093730585EC90E09093F6
:102B400076058093750584EC90E0909378058093EA
:102B5000770580EC90E090937A058093790581EC7D
:102B600090E090937C0580937B0582EC90E09093BD
:102B70007E0580937D0586EC90E0909380058093A0
:102B80007F0594E09093810583E08093820527E0A0
:102B90002093830525E02093840531E0309385055B
:102BA000D093F705C093F6051092F8051092F90539
:102BB0001092FA051092FB051092CC051092CB05ED
:102BC00049EA51E05093CA054093C9053AE0309371
:102BD000CD053FEF3093CE0538E03093CF052093FD
:102BE000D0059093D1058093D20582E08093D305E0
:102BF0001092D4051092D5051092D6051092D705E3
:102C000061E08AE00E94CF028091CE058F3F19F0EB
:102C100061E00E94CF0261E08091CF050E94CF0267
:102C20001092D80581E00E94090B1092BD05109208
:102C3000BC0588EEC82E83E0D82EE12CF12CC09282
:102C4000BE05D092BF05E092C005F092C1058DE8A7
:102C500091E09093BB058093BA0584E08093C6050C
:102C600081EB91E09093B5058093B40540EC4093DF
:102C7000B60538EA3093B70521E02093B8055CE942
:102C80005093B9059093AF058093AE054093B0057E
:102C90003093B1052093B2055EEF5093B305909346
:102CA000A9058093A8054093AA053093AB0520930E
:102CB000AC052093AD059093A3058093A205CFEFBB
:102CC000C093A405C093A505C093A6051092A705BF
:102CD0008CE995E00E946C0286E995E00E946C0206
:102CE00010928A0510928905C0928B05D0928C05AE
:102CF000E0928D05F0928E0589E691E0909388052B
:102D000080938705C0939305DF91CF91FF90EF905B
:102D1000DF90CF9008952F923F924F925F926F92E3
:102D20007F928F929F92AF92BF92CF92DF92EF925B
:102D3000FF920F931F93CF93DF93CDB7DEB72D97FD
:102D40000FB6F894DEBF0FBECDBF58877A87242E0A
:102D5000862E41110CC083942CE0281550F43FEFCF
:102D6000C31AD30A332433948824839404C0342EA2
:102D700002C0332433948A858D87EEE4EC0DAE2FA8
:102D8000B0E020E833E341EE51E00E9480182B01CF
:102D90003C0122EB37E06D01E4E6F0E000E911E0F0
:102DA000C901825B97408C159D05DCF4C9018370D5
:102DB0009927892B99F4C901BF010E94C418892B56
:102DC00031F4C901B8010E94C418892B39F4A0E874
:102DD0004A0EA1E55A1EA1E06A1E711C2F5F3F4FEB
:102DE000DFCFBEE4CB1AB8EFDB0AC60164E670E0C1
:102DF0000E94C4187C01C60160E971E00E94C418F9
:102E00005C0109EB11E0E1E0F0E0912C23E0C2224B
:102E1000DD24E815F90534F5E230F10589F4C11433
:102E2000D10471F4E114F10419F4A114B10441F4D2
:102E300030E8430E3BE3531E36E2631E711C0EC0A6
:102E4000D8018C91A82FB0E020E831E541E050E0B6
:102E50000E948018460E571E681E791E31960F5F1D
:102E60001F4FD7CFBD852B2F30E0A0E1BEE00E94E1
:102E7000B518460E571E681E791E088510E0C3015E
:102E8000B2010E940E1480910C069801281B310992
:102E9000C901079667E070E00E94C418232D30E056
:102EA0002150310967E0629FA001639F500D1124FA
:102EB000DC01A40FB51F20E831E541E050E00E949D
:102EC0008B18640D751D861D971D211004C0605858
:102ED0007A43894091092D960FB6F894DEBF0FBE54
:102EE000CDBFDF91CF911F910F91FF90EF90DF90B9
:102EF000CF90BF90AF909F908F907F906F905F909A
:102F00004F903F902F900895CF92DF92EF92FF92D3
:102F1000CF93DF936C01990FEE08FF08F7FE1BC0FB
:102F20006DE285E695E00E94F901EC014427552702
:102F3000BA014C195D096E097F092AE085E695E022
:102F40000E94A3018C0F9D1FDF91CF91FF90EF9006
:102F5000DF90CF9008952AE0B701A60185E695E0BD
:102F6000DF91CF91FF90EF90DF90CF900C94A30171
:102F7000CF93DF930E948417EC0185E695E00E94D1
:102F800000028C0F9D1FDF91CF9108958F929F9229
:102F9000AF92BF92CF92DF92EF92FF920F931F9367
:102FA000CF93DF93EC016B01E880F9800A811B81EC
:102FB0002C813D814E815F81688579858A859B85DD
:102FC0000E948B1668A379A38AA39BA3EC84FD843B
:102FD0000E851F85288939894A895B896C897D8995
:102FE0008E899F890E948B166B017C016CA37DA347
:102FF0008EA39FA3AE89BF892CE330E00E94D8182E
:1030000008A119A12AA13BA148015901861A970AD2
:10301000A80AB90A888E998EAA8EBB8EAA85BB850E
:103020002CE330E00E94D818C61AD70AE80AF90A39
:10303000CC8EDD8EEE8EFF8EDF91CF911F910F91A2
:10304000FF90EF90DF90CF90BF90AF909F908F90C8
:103050000895CF93DF9365E675E00E942602EC01A8
:1030600085E695E00E9400028C0F9D1FDF91CF91B5
:1030700008950F931F93CF93DF93CDB7DEB72A97B1
:103080000FB6F894DEBF0FBECDBF8E010F5F1F4F8E
:1030900089E0F80111928A95E9F785E096E09B8333
:1030A0008A8381E096E09E838D838DEF95E09987FA
:1030B00088870E940C0D0E94300E61E081E20E9420
:1030C000280D8FEF8A8741E061E0CE010A960E94C9
:1030D000750D0E940C0DA80163E081E20E94C30DF2
:1030E0000E942C0E2A960FB6F894DEBF0FBECDBFFD
:1030F000DF91CF911F910F910895F8940C94F918D6
:103100000E94B518A59F900DB49F900DA49F800DAF
:10311000911D11240895B7FF0C9480180E94801807
:10312000821B930B0895A1E21A2EAA1BBB1BFD0163
:103130000DC0AA1FBB1FEE1FFF1FA217B307E40796
:10314000F50720F0A21BB30BE40BF50B661F771FEE
:10315000881F991F1A9469F76095709580959095CE
:103160009B01AC01BD01CF010895A29FB001B39FA7
:10317000C001A39F700D811D1124911DB29F700D80
:10318000811D1124911D089597FB072E16F40094BC
:1031900007D077FD09D00E94DF1807FC05D03EF468
:1031A000909581959F4F0895709561957F4F0895F3
:1031B0000E94B518B7FF0895821B930B0895AA1BB0
:1031C000BB1B51E107C0AA1FBB1FA617B70710F012
:1031D000A61BB70B881F991F5A95A9F78095909544
:1031E000BC01CD010895EE0FFF1F0590F491E02D75
:0631F0000994F894FFCFE2
:1031F6003139322E3136382E312E3235340077774A
:10320600772E676F6F676C652E636F6D0031303197
:1032160039676F4E243434006362796700FFFFFF1D
:10322600FFFFFFFFFF4345535400000001030278F0
:103236000043455400000000010A033C0000004022
:103246000014005400000000007704A0008C00C4A5
:1032560004E404B904000000005A04EB069407C70E
:1032660006A3063C049B0806086708B70A28075306
:1032760004E6057004380A3B050000000026042E0B
:10328600098B077F065B060F04BF096B0ACD050095
:1032960009C807070400000000060DA00000000092
:1032A60000260200000000C8001F1C1F1E1F1E1F54
:1032B6001F1E1F1E1F54696D652073796E6365643A
:1032C6002077697468204E54502073657276657253
:1032D60021005570646174696E67206C6F63616C60
:1032E6002054696D652077697468204E54502E2EDF
:1032F6002E004552524F522E204E54502075706467
:10330600617465206661696C6564003D3D205765A2
:103316006C636F6D6520746F204342594720546576
:103326006D702073656E736F7220312E30203D3DB7
:1033360000436F6E6E656374696E6720746F205705
:10334600696669202E2E2E004552524F523A20466B
:1033560061696C656420746F20636F6E6E6563745B
:1033660020746F20576966692100436F6E6E65632E
:1033760074656420746F2057696669206E6574777A
:103386006F726B210049502061646472657373200B
:1033960069733A20004761746577617920616464D6
:1033A600726573732069733A2000496E69746961A6
:1033B6006C697A696E6720554450206F6E20706F75
:1033C60072743A2000436F6E6E656374696E67208F
:1033D600746F204E545020736572766572202E2EBF
:1033E6002E004C6F63616C2074696D652075706486
:1033F600617465642077697468204E5450210055C5
:103406007064617465207374617475732069733AAE
:1034160020004552524F522E204C6F63616C20742F
:10342600696D65206E6F74207570646174656420C3
:1034360077697468204E5450004C6F63616C204469
:1034460061746520616E642054696D6520757064D1
:1034560061746564207769746820445354206973E5
:103466003A20002F003A003D3D3D3D3D3D3D3D3D6E
:103476003D3D3D3D3D3D3D3D3D3D3D3D3D3D3D3D76
:103486003D3D000A5374617274696E6720636F6E06
:103496006E656374696F6E20746F207365727665EE
:1034A600722E2E2E00436F6E6E65637465642074F3
:1034B6006F2073657276657200474554202F7365D9
:1034C600617263683F713D61726475696E6F204811
:1034D6005454502F312E3100486F73743A20777749
:1034E600772E676F6F676C652E636F6D00436F6E27
:1034F6006E656374696F6E3A20636C6F7365004422
:103506006F6F72206F70656E2E205475726E206F0D
:103516006E204C434420616E64206C6967687400B9
:10352600202043425947202D205261636B00523AB6
:1035360034302020423A34322020503A333200448C
:103546006F6F7220636C6F7365642E205475726E94
:10355600206F6666204C434420616E64206C696768
:103566006874004E6F20536F636B657420617661DB
:08357600696C61626C650000E4
:00000001FF
